:100000000C942A000C943F000C943F000C943F0089
:100010000C943F000C943F000C943F000C943F0064
:100020000C943F000C943F000C943F000C943F0054
:100030000C943F000C943F000C943F000C943F0044
:100040000C943F000C943F000C943F000C943F0034
:100050000C943F0011241FBECFE5D8E0DEBFCDBF1A
:1000600011E0A0E6B0E0E8ECF7E102C005900D92E7
:10007000A836B107D9F70E94A40B0C94E20B0C949C
:100080000000EF92FF920F931F937B018C0120E001
:1000900030E040E05FE40E94C30288238CF0C80196
:1000A000B70120E030E040E05FE40E94B9010E9427
:1000B00081039B01AC01205030404040504806C0B5
:1000C000C801B7010E9481039B01AC01B901CA01BB
:1000D0001F910F91FF90EF900895A0E0B0E0E3E74B
:1000E000F0E00C94AB0BDC012B01FA019C919230F7
:1000F00008F439C1EB018881823008F433C19430AF
:1001000069F4843009F02FC111969C91119789816F
:10011000981709F428C1A0E6B0E025C1843009F49D
:1001200021C18230A9F4923009F01DC19A01AD01BC
:1001300088E0EA010990AE01E90109929E0181502F
:10014000C1F7E201898111969C918923818308C1BD
:10015000923009F407C112962D903C901397EB0151
:100160008A819B811496AD90BD90CD90DC901797BD
:10017000EC80FD800E811F819101281B390BB90194
:1001800037FF04C066277727621B730B6032710547
:100190000CF061C0121613066CF537014801062EEB
:1001A00004C096948794779467940A94D2F721E0D8
:1001B00030E040E050E004C0220F331F441F551FC1
:1001C0006A95D2F721503040404050402E213F21C7
:1001D00040235123211531054105510521F021E02E
:1001E00030E040E050E079018A01E628F72808294C
:1001F00019293CC0232BD1F1260E371E35014601AB
:10020000062E04C096948794779467940A94D2F744
:1002100021E030E040E050E004C0220F331F441FD3
:10022000551F6A95D2F721503040404050402A2156
:100230003B214C215D21211531054105510521F05E
:1002400021E030E040E050E059016A01A628B728DB
:10025000C828D9280BC0821593052CF01C01AA24AC
:10026000BB24650103C0EE24FF24870111969C91F5
:10027000D20111968C91981709F445C0992339F051
:10028000A80197012A193B094C095D0906C0A6017E
:1002900095012E193F09400B510B57FD08C01182E3
:1002A0003382228224833583468357831DC081E0B5
:1002B00081833382228288279927DC01821B930B5A
:1002C000A40BB50B84839583A683B7830DC0220F3F
:1002D000331F441F551F24833583468357838281F0
:1002E000938101979383828324813581468157814D
:1002F000DA01C9010197A109B1098F5F9F4FAF4F83
:10030000BF4328F30BC0918333822282EA0CFB1C8B
:100310000C1D1D1DE482F5820683178383E0808314
:10032000248135814681578157FF1AC0C901AA2708
:1003300097FDA095BA2F81709070A070B0705695FF
:10034000479537952795822B932BA42BB52B848328
:100350009583A683B7838281938101969383828359
:10036000DF0101C0D201CD01CDB7DEB7E2E10C94CF
:10037000C70BA0E2B0E0EFEBF1E00C94B70B6983A0
:100380007A838B839C832D833E834F835887E9E058
:10039000EE2EF12CEC0EFD1ECE010196B7010E944F
:1003A000F9048E010F5E1F4FCE010596B8010E9421
:1003B000F9048A8991E089278A8BC701B801AE01C7
:1003C000475E5F4F0E946D000E942404A096E6E005
:1003D0000C94D30BA0E2B0E0E0EFF1E00C94B70B8B
:1003E00069837A838B839C832D833E834F835887D5
:1003F000F9E0EF2EF12CEC0EFD1ECE010196B701B7
:100400000E94F9048E010F5E1F4FCE010596B801C0
:100410000E94F904C701B801AE01475E5F4F0E9418
:100420006D000E942404A096E6E00C94D30BA8E192
:10043000B0E0EDE1F2E00C94B30B69837A838B8337
:100440009C832D833E834F835887B9E0EB2EF12C9C
:10045000EC0EFD1ECE010196B7010E94F9048E013B
:100460000F5E1F4FCE010596B8010E94F904298541
:10047000223008F47EC03989323010F4B8017CC0D3
:100480008A859A8989278A87243011F0223031F4AD
:10049000231709F06EC060E670E06EC0343039F4A6
:1004A0001D861E861F86188A1C861B8604C0323055
:1004B00021F484E08987B7015FC02B853C858B8957
:1004C0009C89281B390B3C872B87ED84FE840F8584
:1004D0001889AD88BE88CF88D88CEA14FB040C0537
:1004E0001D0540F4EE0CFF1C001F111F2150304071
:1004F0003C872B8720E030E040E050E080E090E057
:10050000A0E0B0E460E070E0EA14FB040C051D0517
:1005100040F0282B392B4A2B5B2BEA18FB080C09DF
:100520001D09B695A79597958795EE0CFF1C001FA2
:10053000111F6F5F7F4F6F31710531F7DA01C9010C
:100540008F779070A070B07080349105A105B105CF
:1005500061F427FD0AC0E114F1040105110529F039
:10056000205C3F4F4F4F5F4F20782D873E874F874E
:10057000588BBE01675F7F4FCB010E9424046896B1
:10058000EAE00C94CF0BA8E1B0E0E9ECF2E00C94C7
:10059000B70B69837A838B839C832D833E834F8340
:1005A000588789E0E82EF12CEC0EFD1ECE01019655
:1005B000B7010E94F9048E010F5E1F4FCE01059610
:1005C000B8010E94F9048985823040F0898982301F
:1005D00028F0C701B8010E94710501C08FEF68962D
:1005E000E6E00C94D30BA8E1B0E0E9EFF2E00C9464
:1005F000B70B69837A838B839C832D833E834F83E0
:10060000588789E0E82EF12CEC0EFD1ECE010196F4
:10061000B7010E94F9048E010F5E1F4FCE010596AF
:10062000B8010E94F9048985823040F089898230BE
:1006300028F0C701B8010E94710501C081E06896E9
:10064000E6E00C94D30BA8E0B0E0E9E2F3E00C9410
:10065000B40B9B01AC0183E08983DA01C9018827CF
:10066000B7FD83959927AA27BB27B82E21153105F9
:100670004105510519F482E089833AC08823A9F025
:10068000203080E0380780E0480780E8580729F4E8
:1006900060E070E080E09FEC30C0EE24FF24870132
:1006A000E21AF30A040B150B02C079018A018EE1EC
:1006B000C82ED12CDC82CB82ED82FE820F8318877C
:1006C000C801B7010E94D50301971816190684F4D2
:1006D000082E04C0EE0CFF1C001F111F0A94D2F755
:1006E000ED82FE820F831887C81AD90ADC82CB827A
:1006F000BA82CE0101960E9424042896E9E00C9467
:10070000D00BACE0B0E0E7E8F3E00C94BB0B6983FE
:100710007A838B839C83CE010196BE016B5F7F4FF2
:100720000E94F9048D81823061F1823050F1843071
:1007300021F48E81882351F12EC02F81388537FD19
:1007400020C06E812F3131051CF06623F9F023C0E3
:100750008EE190E0821B930B29853A854B855C8561
:1007600004C056954795379527958A95D2F7662305
:10077000B1F050954095309521953F4F4F4F5F4FC9
:100780000EC020E030E040E050E009C02FEF3FEF26
:100790004FEF5FE704C020E030E040E050E8B901EF
:1007A000CA012C96E2E00C94D70BEF92FF920F93C4
:1007B0001F937B018C0180E0E81680E0F80681E061
:1007C000080780E0180788F48FEFE816F1040105A8
:1007D000110531F028F088E090E0A0E0B0E017C00B
:1007E00080E090E0A0E0B0E012C080E0E81680E099
:1007F000F80680E0080781E0180728F088E190E01B
:10080000A0E0B0E004C080E190E0A0E0B0E020E231
:1008100030E040E050E0281B390B4A0B5B0B04C072
:1008200016950795F794E7948A95D2F7F701E8595A
:10083000FF4F8081281B310941095109C9011F91CE
:100840000F91FF90EF900895DF92EF92FF920F9338
:100850001F93FC01E480F58006811781D18080819F
:10086000823048F480E090E0A0E1B0E0E82AF92A84
:100870000A2B1B2BA5C0843009F49FC0823021F4C1
:10088000EE24FF24870105C0E114F10401051105E0
:1008900019F4E0E0F0E096C0628173819FEF623866
:1008A00079070CF05BC022E83FEF261B370B2A319B
:1008B00031052CF020E030E040E050E02AC0B801E3
:1008C000A701022E04C076956795579547950A941F
:1008D000D2F781E090E0A0E0B0E004C0880F991F5B
:1008E000AA1FBB1F2A95D2F70197A109B1098E2132
:1008F0009F21A023B1230097A105B10521F081E03C
:1009000090E0A0E0B0E09A01AB01282B392B4A2BF4
:100910005B2BDA01C9018F779070A070B0708034C2
:100920009105A105B10539F427FF09C0205C3F4FAF
:100930004F4F5F4F04C0215C3F4F4F4F5F4FE0E090
:10094000F0E02030A0E03A07A0E04A07A0E45A0710
:1009500010F0E1E0F0E079018A0127C0603871050C
:1009600064F5FB01E158FF4FD801C7018F77907004
:10097000A070B07080349105A105B10539F4E7FE8F
:100980000DC080E490E0A0E0B0E004C08FE390E010
:10099000A0E0B0E0E80EF91E0A1F1B1F17FF05C0FC
:1009A00016950795F794E794319687E01695079585
:1009B000F794E7948A95D1F705C0EE24FF248701C8
:1009C000EFEFF0E06E2F679566276795902F9F7782
:1009D000D794DD24D7948E2F8695492F462B582FF8
:1009E0005D29B701CA011F910F91FF90EF90DF9031
:1009F0000895FC01DB01408151812281622F6F77D4
:100A000070E0221F2227221F9381892F880F822BBB
:100A1000282F30E0991F9927991F11969C931197C1
:100A200021153105A9F5411551056105710511F42F
:100A300082E037C082E89FEF13969C938E931297C3
:100A40009A01AB0167E0220F331F441F551F6A95BF
:100A5000D1F783E08C930DC0220F331F441F551F25
:100A600012968D919C911397019713969C938E9358
:100A70001297203080E0380780E0480780E458076C
:100A800058F314962D933D934D935C9317970895C7
:100A90002F3F310579F4411551056105710519F4B0
:100AA00084E08C93089564FF03C081E08C9312C0AE
:100AB0001C9210C02F57304013963C932E931297E0
:100AC00083E08C9387E0440F551F661F771F8A953C
:100AD000D1F7706414964D935D936D937C93179743
:100AE00008951F93DC01FB019C91923008F447C0EC
:100AF0008081823008F443C0943051F411961C91E7
:100B0000843099F58181682F70E0611B71093FC0C5
:100B1000843021F0923031F48230B9F18181882320
:100B200089F12DC011961C9111978230F1F08181CD
:100B30001817D9F412962D913C91139782819381C5
:100B40008217930794F028173907BCF014968D91FB
:100B50009D910D90BC91A02D2481358146815781B6
:100B6000281739074A075B0718F4112341F00AC018
:100B700082179307A407B50740F4112319F061E029
:100B800070E005C06FEF7FEF02C060E070E0CB0166
:100B90001F910895DF93CF93CDB7DEB728970FB697
:100BA000F894DEBF0FBECDBF6D837E838F839887A1
:100BB000E3E5F0E085E08083E2E5F0E010826D811E
:100BC0007E818F8198852DEB37E346E05DE30E94BF
:100BD0001702DC01CB01BC01CD010E944100DC0108
:100BE000CB019C838B831A8219821A82198215C0C9
:100BF000E8E5F0E08081882F90E0817090700097A8
:100C0000B9F3A8E5B0E0E8E5F0E0808181608C937D
:100C100089819A8101969A83898329813A818B817E
:100C20009C818217930720F3E3E5F0E01082A8E5AA
:100C3000B0E0E8E5F0E0808181608C9328960FB603
:100C4000F894DEBF0FBECDBFCF91DF910895DF9343
:100C5000CF9300D000D000D0CDB7DEB76B837C83BC
:100C60008D839E8381E28A838A81882F90E0AA27E0
:100C700097FDA095BA2FBC01CD010E942303DC0192
:100C8000CB01BC01CD012B813C814D815E810E9455
:100C9000F30288238CF46B817C818D819E8120E01E
:100CA00030E04AE754E40E941702DC01CB01BC01AA
:100CB000CD010E94CA056CC08A81882F90E0AA27C6
:100CC00097FDA095BA2FBC01CD010E942303DC0142
:100CD000CB01BC01CD012B813C814D815E810E9405
:100CE000F3028823DCF4E3E5F0E085E08083E2E5CD
:100CF000F0E01082E8E5F0E08081882F90E08170DC
:100D000090700097B9F3E3E5F0E01082A8E5B0E059
:100D1000E8E5F0E0808181608C933AC06B817C8152
:100D20008D819E812DEB37E346E05DE30E94F30267
:100D3000882374F56B817C818D819E812DEB37E357
:100D400046E059E30E941702DC01CB01BC01CD0152
:100D50000E944100DC01CB018983E2E5F0E099E0EB
:100D60008981292F281B822F8083E8E5F0E080818C
:100D7000882F90E0817090700097B9F3E3E5F0E080
:100D80001082A8E5B0E0E8E5F0E0808181608C9316
:100D900026960FB6F894DEBF0FBECDBFCF91DF9180
:100DA0000895DF93CF93CDB7DEB72B970FB6F894A6
:100DB000DEBF0FBECDBF688779878A879B8780E2B9
:100DC0008F831E82E3E5F0E081E080838F81882FAE
:100DD00090E0AA2797FDA095BA2FBC01CD010E94F3
:100DE0002303DC01CB01BC01CD01288539854A856F
:100DF0005B850E94F30288230CF040C068857985EA
:100E00008A859B852DEB37E346E05DE30E94170260
:100E1000DC01CB01BC01CD010E944100DC01CB0112
:100E20009D838C831B821A821B821A8215C0E8E57F
:100E3000F0E08081882F90E0817090700097B9F386
:100E4000A8E5B0E0E8E5F0E0808181608C938A81DC
:100E50009B8101969B838A832A813B818C819D8122
:100E60008217930720F3E3E5F0E01082A8E5B0E0F5
:100E7000E8E5F0E0808181608C936CC08F81882FE1
:100E800090E0AA2797FDA095BA2FBC01CD010E9442
:100E90002303DC01CB01BC01CD01288539854A85BE
:100EA0005B850E94F3028823DCF4E3E5F0E085E053
:100EB0008083E2E5F0E01082E8E5F0E08081882FB1
:100EC00090E0817090700097B9F3E3E5F0E0108254
:100ED000A8E5B0E0E8E5F0E0808181608C933AC05D
:100EE000688579858A859B852DEB37E346E05DE350
:100EF0000E94F302882374F5688579858A859B852D
:100F00002DEB37E346E059E30E941702DC01CB01E9
:100F1000BC01CD010E944100DC01CB018983E2E5E7
:100F2000F0E099E08981292F281B822F8083E8E552
:100F3000F0E08081882F90E0817090700097B9F385
:100F4000E3E5F0E01082A8E5B0E0E8E5F0E08081BC
:100F500081608C932B960FB6F894DEBF0FBECDBF89
:100F6000CF91DF910895DF93CF93CDB7DEB7289768
:100F70000FB6F894DEBF0FBECDBF6D837E838F8327
:100F80009887E5E4F0E085E08083E4E4F0E0108217
:100F90006D817E818F8198852DEB37E346E05DE39F
:100FA0000E941702DC01CB01BC01CD010E9441006F
:100FB000DC01CB019C838B831A8219821A821982ED
:100FC00015C0E8E5F0E08081882F90E08170907096
:100FD0000097B9F3A8E5B0E0E8E5F0E08081816032
:100FE0008C9389819A8101969A83898329813A8198
:100FF0008B819C818217930720F3E5E4F0E0108257
:10100000A8E5B0E0E8E5F0E0808181608C93289667
:101010000FB6F894DEBF0FBECDBFCF91DF9108951C
:10102000DF93CF93CDB7DEB7AFE5B0E0EFE5F0E00B
:10103000808180688C93CF91DF910895DF93CF9367
:10104000CDB7DEB7AFE5B0E0EFE5F0E080818F77B8
:101050008C93CF91DF910895DF93CF9300D000D090
:101060000F92CDB7DEB78A836B8381E089838A8153
:10107000282F30E03D832C838C819D818130910528
:10108000D1F02C813D81223031052CF48C819D8161
:10109000009761F01FC02C813D812230310581F025
:1010A0008C819D818330910581F014C0EAE3F0E0EA
:1010B0008B81808310C0E7E3F0E08B8180830BC0DD
:1010C000E4E3F0E08B81808306C0E1E3F0E08B8114
:1010D000808301C0198289810F900F900F900F902B
:1010E0000F90CF91DF910895DF93CF9300D000D080
:1010F0000F92CDB7DEB78A836B8381E089838A81C3
:10110000282F30E03D832C838C819D818130910597
:10111000D1F02C813D81223031052CF48C819D81D0
:10112000009761F01FC02C813D812230310581F094
:101130008C819D818330910581F014C0EBE3F0E058
:101140008B81808310C0E8E3F0E08B8180830BC04B
:10115000E5E3F0E08B81808306C0E2E3F0E08B8181
:10116000808301C0198289810F900F900F900F909A
:101170000F90CF91DF910895DF93CF9300D000D0EF
:1011800000D0CDB7DEB78A836B834C8381E089833F
:101190008B81883008F0E8C08A81282F30E03E83B8
:1011A0002D838D819E818130910509F448C02D8168
:1011B0003E81223031052CF48D819E81009771F0A3
:1011C000D1C02D813E812230310509F469C08D8165
:1011D0009E818330910509F494C0C4C08C81813014
:1011E000A1F4AAE3B0E0EAE3F0E08081482F8B812C
:1011F000282F30E081E090E0022E02C0880F991F76
:101200000A94E2F7842B8C93B0C08C818823A9F4D4
:10121000AAE3B0E0EAE3F0E08081482F8B81282F39
:1012200030E081E090E0022E02C0880F991F0A94FE
:10123000E2F7809584238C9398C0198296C08C81A4
:101240008130A1F4A7E3B0E0E7E3F0E08081482F2C
:101250008B81282F30E081E090E0022E02C0880FC1
:10126000991F0A94E2F7842B8C937FC08C8188238A
:10127000A9F4A7E3B0E0E7E3F0E08081482F8B8199
:10128000282F30E081E090E0022E02C0880F991FE5
:101290000A94E2F7809584238C9367C0198265C015
:1012A0008C818130A1F4A4E3B0E0E4E3F0E080813C
:1012B000482F8B81282F30E081E090E0022E02C081
:1012C000880F991F0A94E2F7842B8C934EC08C816F
:1012D0008823A9F4A4E3B0E0E4E3F0E08081482FA0
:1012E0008B81282F30E081E090E0022E02C0880F31
:1012F000991F0A94E2F7809584238C9336C0198253
:1013000034C08C818130A1F4A1E3B0E0E1E3F0E0EE
:101310008081482F8B81282F30E081E090E0022EE1
:1013200002C0880F991F0A94E2F7842B8C931DC08A
:101330008C818823A9F4A1E3B0E0E1E3F0E08081AF
:10134000482F8B81282F30E081E090E0022E02C0F0
:10135000880F991F0A94E2F7809584238C9305C027
:10136000198203C0198201C01982898126960FB69D
:10137000F894DEBF0FBECDBFCF91DF910895DF930C
:10138000CF9300D000D000D0CDB7DEB78A836B8377
:101390004C8381E089838B81883008F0E6C08A81A4
:1013A000282F30E03E832D838D819E8181309105F1
:1013B00009F448C02D813E81223031052CF48D8105
:1013C0009E81009771F0D2C02D813E81223031057F
:1013D00009F469C08D819E818330910509F494C020
:1013E000C5C08C818130A1F4ABE3B0E0EBE3F0E069
:1013F0008081482F8B81282F30E081E090E0022E01
:1014000002C0880F991F0A94E2F7842B8C93AEC018
:101410008C818823A9F4ABE3B0E0EBE3F0E08081BA
:10142000482F8B81282F30E081E090E0022E02C00F
:10143000880F991F0A94E2F7809584238C9396C0B5
:10144000198294C08C818130A1F4A8E3B0E0E8E374
:10145000F0E08081482F8B81282F30E081E090E000
:10146000022E02C0880F991F0A94E2F7842B8C93F6
:101470007DC08C818823A9F4A8E3B0E0E8E3F0E024
:101480008081482F8B81282F30E081E090E0022E70
:1014900002C0880F991F0A94E2F7809584238C93E9
:1014A00065C0198263C08C818130A1F4A5E3B0E0EE
:1014B000E5E3F0E08081482F8B81282F30E081E048
:1014C00090E0022E02C0880F991F0A94E2F7842B45
:1014D0008C934CC08C818823A9F4A5E3B0E0E5E3AC
:1014E000F0E08081482F8B81282F30E081E090E070
:1014F000022E02C0880F991F0A94E2F78095842378
:101500008C9334C0198232C08C818130A1F4A2E363
:10151000B0E0E2E3F0E08081482F8B81282F30E0BB
:1015200081E090E0022E02C0880F991F0A94E2F732
:10153000842B8C931BC08C818823A9F4A2E3B0E098
:10154000E2E3F0E08081482F8B81282F30E081E0BA
:1015500090E0022E02C0880F991F0A94E2F780954E
:1015600084238C9303C0198201C019828981269635
:101570000FB6F894DEBF0FBECDBFCF91DF910895B7
:10158000DF93CF9300D000D000D0CDB7DEB78A83F1
:101590007C836B8381E089838A81282F30E03E83BE
:1015A0002D838D819E8181309105E1F02D813E81D9
:1015B000223031052CF48D819E81009761F027C087
:1015C0002D813E8122303105A1F08D819E818330B5
:1015D0009105B1F01CC0E9E3F0E08081EB81FC8172
:1015E000808316C0E6E3F0E08081EB81FC8180839C
:1015F0000FC0E3E3F0E08081EB81FC81808308C0D1
:10160000E0E3F0E08081EB81FC81808301C01982FE
:10161000898126960FB6F894DEBF0FBECDBFCF915D
:10162000DF910895DF93CF93CDB7DEB727970FB63D
:10163000F894DEBF0FBECDBF8A836B835D834C837E
:1016400081E089838B81883008F073C08A81282FDC
:1016500030E03F832E834E815F814130510559F147
:101660008E819F818230910534F42E813F81211536
:10167000310569F05CC04E815F814230510579F1DE
:101680008E819F818330910509F43DC050C0E9E30C
:10169000F0E08081282F30E08B81882F90E0A90135
:1016A00002C0559547958A95E2F7CA018170EC8191
:1016B000FD8180833FC0E6E3F0E08081282F30E0A9
:1016C0008B81882F90E0A90102C0559547958A9596
:1016D000E2F7CA018170EC81FD8180832BC0E3E3D6
:1016E000F0E08081282F30E08B81882F90E0A901E5
:1016F00002C0559547958A95E2F7CA018170EC8141
:10170000FD81808317C0E0E3F0E08081282F30E086
:101710008B81882F90E0A90102C0559547958A9545
:10172000E2F7CA018170EC81FD81808303C01982D8
:1017300001C01982898127960FB6F894DEBF0FBECB
:10174000CDBFCF91DF910895DF93CF93CDB7DEB7B3
:10175000CF91DF9108952F923F924F925F926F92B7
:101760007F928F929F92AF92BF92CF92DF92EF9231
:10177000FF920F931F93CF93DF93CDB7DEB7CA1BB2
:10178000DB0B0FB6F894DEBF0FBECDBF09942A88DD
:10179000398848885F846E847D848C849B84AA8485
:1017A000B984C884DF80EE80FD800C811B81AA8112
:1017B000B981CE0FD11D0FB6F894DEBF0FBECDBFDD
:0817C000ED010895F894FFCF3C
:1017C8000000000000000000000102020303030300
:1017D80004040404040404040505050505050505B9
:1017E8000505050505050505060606060606060699
:1017F8000606060606060606060606060606060681
:101808000606060606060606070707070707070768
:101818000707070707070707070707070707070750
:101828000707070707070707070707070707070740
:101838000707070707070707070707070707070730
:101848000707070707070707080808080808080818
:101858000808080808080808080808080808080800
:1018680008080808080808080808080808080808F0
:1018780008080808080808080808080808080808E0
:1018880008080808080808080808080808080808D0
:1018980008080808080808080808080808080808C0
:1018A80008080808080808080808080808080808B0
:1018B80008080808080808080808080808080808A0
:0818C8000808080808080808D8
:00000001FF
